:020000040800F2
:10000000F804002005010008EF1800088D1700080B
:10001000ED180008D3030008491E00080000000086
:10002000000000000000000000000000F3180008BD
:10003000D503000800000000F1180008F5180008BA
:100040001F0100081F0100081F0100081F01000810
:100050001F0100081F0100081F0100081F01000800
:100060001F0100081F0100081F0100081F010008F0
:100070001F0100081F0100081F0100081F010008E0
:100080001F0100081F0100081F0100081F010008D0
:100090001F0100081F0100081F0100081F010008C0
:1000A0001F0100081F0100081F010008891900082E
:1000B0001F010008951900081F0100081F01000812
:1000C0001F0100081F0100081F0100081F01000890
:1000D0001F0100083D1E00081F0100081F01000845
:1000E0001F0100081F0100081F010008DFF810D0E1
:1000F00000F04EF900480047A11E0008AFF3008051
:10010000F80400200648804706480047FEE7FEE75F
:10011000FEE7FEE7FEE7FEE7FEE7FEE7FEE7FEE7B7
:1001200041190008ED000008202A04DB203A21FADA
:1001300002F00021704721FA02F3D040C2F1200200
:100140009140084319467047D2B201E000F8012BF4
:10015000491EFBD270470022F6E710B513460A4647
:1001600004461946FFF7F0FF204610BD2DE9FE4F6B
:1001700081EA030404F0004421F0004100944FF0B0
:10018000000B23F0004350EA01045ED052EA03045E
:100190005BD0C3F30A54C1F30A552C44A4F2F334E0
:1001A0000194A0FB0254C1F3130141F48011C3F385
:1001B000130343F4801301FB024400FB034E840A43
:1001C000970A44EA815447EA8357A4FB07680295DB
:1001D0008D0A05FB07854FEA932C04FB0C54270579
:1001E000029D4FEA065847EA1637B5EB08056EEB55
:1001F000070C870E920E47EA811742EA8312A7FB8B
:100200000201B6EB0B0164EB00042B0D43EA0C3347
:100210005E1844EB1C50DA465146E7FB0201C5F379
:1002200013044FEA0B3343EA14534FEA0432019CA0
:1002300043EA0603A4F10C040294009CCDE900B447
:1002400000F058F803B0BDE8F08F00200146F9E750
:1002500070B521F0004303430CD0C1F30A550024CC
:10026000D5EB040564EB0403D617AD1AB34102DBEA
:100270000020014670BD201841EB025170BD0EB543
:1002800040F2334102910021CDE900110A460B46AC
:1002900000F030F803B000BD70B5C1F30A5201F0B0
:1002A00000450024C1F3130140F2FF3341F48011F3
:1002B0009A4201DA002070BD40F233439A42A2F222
:1002C000334203DC5242FFF72FFF00E090402C4303
:1002D000F1D0404270BD10B5141E73F1000408DA6D
:1002E000401C41F1000192185B411A4301D120F0FA
:1002F000010010BD2DE9F04D92469B4611B1B1FAB7
:1003000081F202E0B0FA80F22032904600F052F81A
:1003100004460F4640EA0A0041EA0B0153465A469A
:10032000084313D0114653EA010019D0C8F1400226
:100330005046FFF7F9FE05460E46504659464246DE
:1003400000F038F8084305D0012004E02046394683
:10035000BDE8F08D0020054346EAE0762C433743A4
:100360000A986305E40AA0EB08000022FD0A44EAAB
:1003700047540A3002D500200146E9E7010510196B
:100380006941DDE9084500196941BDE8F04DA2E782
:10039000064C074D06E0E06840F0010394E80700D2
:1003A00098471034AC42F6D3FFF7A4FE142100089E
:1003B00034210008202A04DB203A00FA02F1002050
:1003C00070479140C2F1200320FA03F31943904093
:1003D0007047FEE77047000010B590F82110002428
:1003E000022903D00421816301243DE001680A68E9
:1003F00022F00E020A6001680A6822F001020A6017
:100400001A4A0168914201D1012121E0174A1432B0
:10041000914201D110211BE0144A2832914201D1AE
:10042000891515E0114A3C32914201D189140FE03F
:100430000E4A5032914202D14FF4803108E00B4A0B
:100440006432914202D14FF4801101E04FF080718B
:10045000064A083A5160012180F82110002180F8F5
:100460002010416B01B18847204610BD08000240B2
:1004700070B5044600F004F90546601C02D004483B
:100480000078044400F0FCF8401BA042FAD370BD91
:10049000240000202DE9F84FDFF8B891002409F17D
:1004A000040A0AF1040B23460F270BF1040EC9E0DE
:1004B0000125A5402A40AA427DD1674ED1F804C04B
:1004C000ACEB0608B44532D014DCBCF1030F3AD0D3
:1004D00009DCBCF1000F2AD0BCF1010F1CD0BCF12B
:1004E000020F31D11DE0BCF1110F17D0BCF1120F7A
:1004F0002AD119E0B8F5881F19D006DCB8F5803F7D
:1005000015D0B8F5801F1FD111E0B8F5001F0ED02F
:10051000B8F5041F18D10AE0CB6815E0CB681B1DA5
:1005200012E0CB6808330FE0CB680C330CE08B682B
:100530002BB1012B4FF0080303D0456104E00423E5
:1005400002E0056100E00023FF2A01D8064601E031
:1005500000F104064FEA840501D9A5F12005D6F87B
:10056000008007FA05FC28EA0C0803FA05F548EABA
:100570000508C6F800804D68ED0062D5374DAE69BC
:1005800046F00106AE61AD6924F0030605F00105F1
:100590000095334D06EB050CDCF80850A607360F26
:1005A00007FA06F825EA0805DFF8B880404503D1C8
:1005B0004FF0000817E044E0DFF8AC80404502D17E
:1005C0004FF001080FE0DFF8A480404502D14FF062
:1005D000020808E0DFF89880404502D14FF0030898
:1005E00001E04FF0040808FA06F848EA0508CCF8DC
:1005F00008804D68D9F80060ED034D4601D51643DB
:1006000000E096432E604D68DAF80060AD03554671
:1006100001D5164300E096432E604D68DBF800607C
:10062000ED025D4601D5164300E096432E604D680D
:10063000DEF80060AD02754601D5164300E0964332
:100640002E60641C0D682A46E5407FF431AFBDE89A
:10065000F88F00000004014000001110001002405B
:100660000000014000080140000C01400010014062
:10067000001401400AB1016170470904FBE7000062
:10068000014880687047000024000020024881680B
:10069000027811448160704724000020074810B59B
:1006A000016841F010010160032000F075F800209E
:1006B00000F006F800F024F8002010BD00200240F1
:1006C00070B50D4D04464FF47A712878B1FBF0F007
:1006D0000A490968B1FBF0F000F0ECFA48B9102CB7
:1006E00007D200222146501E00F036F800206C6030
:1006F00070BD012070BD00002400002030000020EB
:100700000C4808B5816941F001018161816901F0FE
:1007100001010091C16941F08051C161C06900F0DF
:10072000805000900448416821F0E06141F0007180
:10073000416008BD0010024000000140002809DBB4
:1007400000F01F02012191404009800000F1E020EB
:10075000C0F8001170470000F0B40E4B1B680C4647
:10076000C3F30223C3F10705042D00D90425191D85
:10077000072901D2002300E0DB1E012606FA05F15D
:10078000491E214099409E40761E16403143F0BCE0
:1007900001F05BBB0CED00E0064900F007020868C1
:1007A0004FF6FF03184040EA0220034A1043086056
:1007B000704700000CED00E00000FA052DE9F0475D
:1007C0000F46050061D0434E306800F00700B84284
:1007D00009D2306820F0070038433060306800F0FC
:1007E0000700B84251D128683B4C810712D5400719
:1007F00003D5606840F4E06060602878000703D5A6
:10080000606840F4605060606068A96820F0F000A3
:10081000084360602878C00728D06868012810D095
:100820002168022810D0890700292EDA616821F09A
:10083000030101436160FFF723FF804641F28839DD
:100840000DE021688903EFE78901EDE7FFF718FF65
:10085000A0EB0801494502D90320BDE8F087606894
:10086000696800F00C00B0EB810FEFD1306800F048
:100870000700B8420BD9306820F0070038433060D9
:10088000306800F00700B84201D00120E5E7287881
:10089000400705D56068E96820F4E06008436060BF
:1008A0002878000706D56068296920F4605040EA7E
:1008B000C100606000F038F86168084AC1F30311B4
:1008C000515CC8400649086006480068FFF7F8FE1A
:1008D0000020C2E70020024000100240FC20000877
:1008E00030000020280000200448054900684968BD
:1008F000044AC1F30221515CC84070473000002017
:10090000001002400C2100080448054900684968AD
:10091000044AC1F3C221515CC84070473000002036
:10092000001002400C21000812A185B00FC98DE80B
:100930000F0014A0144A006804905168134801F095
:100940000C03042B10D0082B0ED1C1F38343C90331
:100950001DF803000AD5516804AAC1F34041515C57
:100960000A4A5043B0FBF1F005B0704708494843CC
:10097000FAE7000002030405060708090A0B0C0D3C
:100980000E0F1010010200000010024000127A0049
:1009900000093D002DE9F84F040070D02078C04DCB
:1009A000C00749D06868C0F38100012807D0686893
:1009B000C0F38100022809D16868C00306D5286801
:1009C000800339D560680028E7D035E06068B0F56D
:1009D000803F0BD010B1B0F5A02F11D0286820F4C3
:1009E00080302860286820F4802002E0286840F4E5
:1009F00080302860606890B1FFF742FE06460AE04A
:100A0000286840F480202860F0E700BFFFF738FE38
:100A1000801B642873D828688003F7D50CE0FFF7A3
:100A20002FFE064605E000BFFFF72AFE801B642864
:100A3000F0D828688003F7D420789A4E80074FF0CA
:100A400001094FF0000839D5686810F00C0F07D085
:100A50006868C0F38100022809D16868C00306D421
:100A60002868800714D52069012808D110E0206982
:100A7000B0B1C6F80090FFF703FE074605E00AE1B3
:100A8000FFF7FEFDC01B0228C4D828688007F7D5F1
:100A90002868616920F0F80040EAC10028600DE094
:100AA000C6F80080FFF7ECFD074604E0FFF7E8FD1D
:100AB000C01B022823D828688007F7D420780007B5
:100AC0002CD57948A169D9B1C0F80090FFF7D8FDBD
:100AD000074604E0FFF7D4FDC01B02280FD8686A60
:100AE0008007F7D571484FF4FA510068B0FBF1F078
:100AF000009000BF0098411E0091FAD20EE080E005
:100B0000C0F80080FFF7BCFD074604E0FFF7B8FD22
:100B1000C01B022875D8686A8007F7D42078400780
:100B200060D5E8690027C00008D4E86940F080502B
:100B3000E861E869012700F0805000905C48016896
:100B4000C90513D40168834641F480710160FFF741
:100B500097FD824606E000BFFFF792FDA0EB0A007A
:100B600064284ED8DBF80000C005F5D5E068012800
:100B70000AD008B1052813D0286A20F001002862A5
:100B8000286A20F0040002E0286A40F00100286290
:100B9000E06841F2883B98B1FFF772FD82460BE0B6
:100BA000286A40F004002862EEE700BFFFF768FD06
:100BB000A0EB0A0159455AD8286A8007F6D50CE0FF
:100BC000FFF75EFD824605E0FFF75AFDA0EB0A0144
:100BD00059454CD8286A8007F6D41FB1E86920F03F
:100BE0008050E861E06988B36968C1F38101022936
:100BF00044D00228C6F8608004D0FFF741FD0446C7
:100C000038E034E0FFF73CFD074604E0FFF738FD2D
:100C1000C01B02282BD828688001F7D4206AB0F5C1
:100C2000803F05D16868A16820F4003008436860FF
:100C3000D4E908010843696821F474110843686025
:100C4000C6F86090FFF71CFD044606E025E000BFF3
:100C5000FFF716FD001B022809D828688001F7D588
:100C60001BE000BFFFF70CFD001B022802D9032088
:100C7000BDE8F88F28688001F4D40EE00128F7D091
:100C80006868226A00F48031914204D1616A00F4FC
:100C90007010884201D00120EAE70020E8E7000058
:100CA0000010024000004242800442423000002016
:100CB0000070004010B5401EB0F1807F01D30120CC
:100CC00010BD4FF0E02460610F21601701F0BDF806
:100CD0000020A06107202061002010BD70477047F0
:100CE00070B590F83C20012A19D0012400F83C4F3F
:100CF0000222427050F83C3C5A689D6822F070060F
:100D00000A684968324325F0800529435A6050F843
:100D10003C2C9160447000210170084670BD022097
:100D200070BD00002DE9F0410646007F012818D172
:100D3000314C207870B1012813D10021304600F0E9
:100D4000ECFAA060316800254D62616888420AD9DA
:100D5000401A0EE00021304600F0DFFA606001200A
:100D60002070BDE8F081814204D94FF6FF72511A1C
:100D70000844E0606078214E214F4FF0FF38012891
:100D800014D0E068FFF77BFA32463B46FFF7EEF9F6
:100D90004246FFF75DFAFFF77FFA60611948257058
:100DA0000068C16821F00201C160DAE7A06930285B
:100DB00011D03128F2D1E068FFF761FA32463B46A4
:100DC000FFF7D4F94246FFF743FAFFF765FAA5614A
:100DD00020616570E2E7E068FFF751FA32463B4672
:100DE000FFF7C4F94246FFF733FAFFF755FA2062DE
:100DF0003120A061D2E70000000000209CC420B098
:100E00007268A13F340000202DE9F041044690F8BB
:100E10003C000D4601283BD0012684F83C600220AE
:100E200084F83D009AB3042A44D02068082A53D09D
:100E3000D5E90027E968036A23F480530362D0F8F8
:100E40001CC0036A2CF4407C4CEA07274FF6FF7C59
:100E500027F470470CEA01313943770323F4005338
:100E600007EA02321A43C16102622068C16921F4B3
:100E70004061C1612068C169AA6841EA0221C1617B
:100E800084F83D60002084F83C00BDE8F08101E07A
:100E90000220FAE7D5E90012EB68206800F066FE50
:100EA0002068816921F00C01816120688169AA684C
:100EB00011430FE0D5E90012EB68206800F082FED4
:100EC0002068816921F44061816120688169AA6894
:100ED00041EA02218161D3E7D5E9002C2F7B016A29
:100EE00021F480710162C169036A21F0030141EAC2
:100EF0000C0121F0F00C39074FF400774CEA116136
:100F000023F4007307EA02221A43C16102622068D7
:100F1000C16921F00C01C1612068C169AA6811434F
:100F2000ADE710B5040003D094F83D0010B107E020
:100F3000012010BD002084F83C00204600F00CF891
:100F4000022084F83D00211D206800F029FD0120C9
:100F500084F83D00002010BD00B585B0002100914F
:100F60000191029103910068124988421FD11248F1
:100F7000816941F400618161816901F4006104913A
:100F8000816941F0040181618069694600F00400D3
:100F900004904FF4807000900848FFF77BFA00221D
:100FA00011461B20FFF7D8FB1B20FFF7C7FB05B03E
:100FB00000BD0000002C014000100240000801406C
:100FC00070B50446006801694FF00005C943890700
:100FD00015D4C168C943890711D4E91E01610120F4
:100FE0002077206880698007204602D0FFF79AFEAC
:100FF00004E000F0D1F8204600F070F92577206871
:101000000169C943490717D4C168C943490713D4C3
:101010006FF004010161022020772068806910F4DC
:10102000407F204602D0FFF77DFE04E000F0B4F8D8
:10103000204600F053F9257720680169C943090764
:1010400016D4C168C943090712D46FF008010161C1
:10105000042020772068C0698007204602D0FFF76F
:1010600061FE04E000F098F8204600F037F925779B
:1010700020680169C943C90617D4C168C943C906B4
:1010800013D46FF010010161082020772068C06937
:1010900010F4407F204602D0FFF744FE04E000F049
:1010A0007BF8204600F01AF9257720680169C943CA
:1010B000C90708D1C168C943C90704D1891E0161A4
:1010C000204600F029F920680169C943090609D4BE
:1010D000C168C943090605D46FF08001016120464B
:1010E000FFF7FCFD20680169C943490609D4C168BE
:1010F000C943490605D46FF040010161204600F064
:1011000021F920680169C94389060BD4C168C94324
:10111000890607D46FF0200101612046BDE87040C8
:10112000FFF7DDBD70BD000010B586B00021009155
:1011300001910291039100681349884221D113481B
:10114000816941F004018161816901F00401049128
:10115000816941F0080181618069022400F0080082
:101160000490C020CDE90004694609480394FFF7C4
:1011700091F90120CDE90004694606480394FFF780
:1011800089F906B010BD00000004004000100240C4
:1011900000080140000C0140704770B5044690F80B
:1011A0003C000D4601280DD0012684F83C60022049
:1011B00084F83D0042B1042A18D0082A2AD00C2A0B
:1011C0004DD139E0022070BD206800F02DFC206870
:1011D000816941F0080181612068816921F0040181
:1011E0008161206881692A69114311E0206800F05B
:1011F00043FC2068816941F4006181612068816954
:1012000021F480618161206881692A6941EA0221B3
:10121000816124E0206800F05BFC2068C16941F036
:101220000801C1612068C16921F00401C161206821
:10123000C1692A69114311E0206800F075FC20683B
:10124000C16941F40061C1612068C16921F4806114
:10125000C1612068C1692A6941EA0221C16184F83B
:101260003D60002084F83C0070BD10B5040003D040
:1012700094F83D0010B107E0012010BD002084F873
:101280003C00204600F00CF8022084F83D00211DAF
:10129000206800F085FB012084F83D00002010BD8F
:1012A00008B500680B49884212D10B48C16941F06A
:1012B0000201C161C069002200F0020000901146E5
:1012C0001D20FFF749FABDE808401D20FFF736BA98
:1012D00008BD0000000400400010024070470000FC
:1012E00010B504460068012200F090FB094920680F
:1012F000884203D1416C41F4004141642068816817
:1013000001F00701062903D0016841F001010160E5
:10131000002010BD002C014070470246002041B162
:10132000042909D008290AD00C2901D11068006CC1
:1013300070471068406B70471068806B704710688A
:10134000C06B70477047704770B5026804461068FC
:10135000D168536910F00F0F50D003F0010501F46C
:10136000907635435DD0C20705D0CA0503D5E26B40
:1013700042F00102E263420705D5DA0703D0E26BCF
:1013800042F00202E263820705D5DA0703D0E26B7E
:1013900042F00402E263020705D5DA0703D0E26BEC
:1013A00042F00802E263E26B002A33D0800604D5E3
:1013B000880602D5204600F036FC20684069E16BC3
:1013C000C0F38010090700D428B3204600F01DFCAC
:1013D0002068416949061AD5416921F040014161FF
:1013E000606BA0B11B494163606BFEF7F5FF0028FD
:1013F00010D0606B416BBDE870400847830610D584
:101400008B060ED52046BDE8704000F00CBC20468F
:10141000FFF799FF70BD2046FFF795FF0020E063BE
:1014200070BD030606D50B0604D52046BDE8704006
:1014300000F0A0BC4006F3D54806F1D5D16820469F
:1014400021F04001D160202184F8391000F081F9A9
:1014500070BD0000FB1B000870B5040004D094F8B8
:101460003900002510B106E0012070BD84F8385025
:10147000204600F023F8242084F839002068C16851
:1014800021F40051C160204600F018FC2068016979
:1014900021F4904101612068416921F02A014161F4
:1014A0002068C16841F40051C160E563202084F8E0
:1014B000390084F83A00002070BD000030B585B0D6
:1014C000002400940194029403940068184988420F
:1014D0002CD11848816941F480418161816901F40E
:1014E00080410491816941F0040181618069124D5C
:1014F00000F0040004904FF400700090022001906E
:101500000320039069462846FEF7C4FF2815CDE95D
:101510000004694628460294FEF7BCFF00221146EB
:101520002520FFF719F92520FFF708F905B030BD90
:1015300000380140001002400008014090F83A30A5
:10154000202B22D1F9B1F2B190F83830012B1CD008
:1015500081628285C2850021C163222280F83A20FF
:1015600080F838100168CA6842F48072CA60016865
:101570004A6942F001024A610068C16841F02001F5
:10158000C1600020704701207047022070470000B2
:101590003F4810B501783F483029026826D03129EC
:1015A00026D0322929D0332929D034292AD03529E7
:1015B0002BD036292CD037292DD038292ED03929B7
:1015C0002FD04FF47A7471292ED0462930D030486C
:1015D000801E4C292FD0522932D0532935D0422990
:1015E00038D048294FD042294FD044E0642100E050
:1015F00096215163006881633DE0FA21F9E74FF4D9
:10160000AF71F6E74FF4E171F3E740F22621F0E71E
:1016100040F28A21EDE740F2EE21EAE740F2523152
:10162000E7E74FF46171E4E754630068846322E004
:1016300000F0EEFC12E0C06980B900F0D4FC0DE0CF
:10164000C06958B900F0D6FC08E0C06930B900F0B4
:10165000D8FC03E0C06908B900F0BEFC0D48234681
:1016600001220B49403000F017F80A4801220849CE
:101670004030FFF763FF07480122BDE810400449EE
:101680004030FFF75BBF012100E00021C161E5E7C9
:1016900002000020740000202DE9F843044690F871
:1016A00039001F4616460D46202850D1A5B19EB1DF
:1016B00094F8380001284AD0012084F838004FF00F
:1016C0000008C4F83C80212084F83900FEF7D8FFD8
:1016D000A6848146E68426E00120BDE8F883E08CFC
:1016E000401EE084A0684B46B0F5805F4FF00002DA
:1016F0004FF080012046009703D000F06CFBE8B962
:101700000DE000F068FBC8B928882168C0F3080024
:101710004860206908B16D1C05E0AD1C03E021683C
:1017200015F8010B4860E08C0028D8D14B46002208
:1017300040212046009700F04EFB08B10320CCE783
:10174000202084F8390084F838800020C5E7022082
:10175000C3E7704770B501220A4DD40221462846DE
:10176000FEF788FF0A2000F08FFB00222146284662
:10177000FEF780FF04480068C16841F00201C160C3
:1017800070BD00000008014034000020FEE70000AA
:101790002DE9F04385B000241D4800940194029483
:1017A0000394816941F004018161816901F00401C0
:1017B0000491816941F0080181618069DFF85480FA
:1017C00000F008004FF400650490002229464046CE
:1017D000FEF750FFDFF840904FF470770022394653
:1017E0004846FEF747FF0095022601250396CDE9FE
:1017F000015469464046FEF74DFE00970396CDE939
:10180000015469464846FEF745FE05B0BDE8F08341
:101810000010024000080140000C014010B586B0E5
:1018200000241448059404940094019402941049EF
:10183000039401600721C0E901144FF6FE71C0E96D
:10184000031444618461FFF76CFB049404A9094804
:101850000594FFF745FA0120CDE9004002940022EB
:10186000694604480394FFF7CFFA06B010BD0000A4
:10187000002C01403400002010B58AB000240794E9
:101880001C2168460894FEF766FC1748154901605C
:10189000A021C0E901144FF47A71C0E903148461F6
:1018A000FFF7E3FC079407A90F480894FFF718FA1D
:1018B0006020CDE900040294002269460A4804949D
:1018C000FFF76BFC042269460748FFF766FC082215
:1018D00069460548FFF761FC0348FFF725FC0AB09D
:1018E00010BD00000004004074000020FEE77047B7
:1018F00070477047FEF7CABE30B58FB028216846E2
:10190000FEF729FC14210AA8FEF725FC0120022578
:1019100004900095102005900024CDE907546846F6
:101920000994FFF737F80F20CDE90A056802CDE9E1
:101930000C4000210AA80E94FEF740FF0FB030BD06
:101940000D48016841F00101016041680B4A1140F6
:10195000416001680A4A11400160016821F4802158
:101960000160416821F4FE0141604FF41F01816074
:101970000449C00308607047001002400000FFF8EF
:10198000FFFFF6FE08ED00E00148FFF719BB00007D
:10199000340000200148FFF713BB00007400002052
:1019A000F0B50268164B174C174D4FF08047984220
:1019B00005D0B84203D0A04201D0A84203D122F002
:1019C00070064A683243984205D0B84203D0A0421C
:1019D00001D0A84203D122F44074CA6822434C6962
:1019E00022F08002224302608A68C2620A68826230
:1019F000984201D10969016301214161F0BD0000F4
:101A0000002C0140000400400008004010B501F027
:101A10001F030121046A99408C430462016A9A40C1
:101A20001143016210BD000030B5026A22F00102CC
:101A30000262026A4368846924F073050C682C43CF
:101A400022F002058A682A430A4DA8420BD122F0EF
:101A50000805CA6823F440732A434D6922F0040242
:101A60001D438B692B434360846149684163026273
:101A700030BD0000002C014030B5026A22F0100297
:101A80000262026A436884690D6824F4E64444EA09
:101A900005248D6822F0200242EA05120B4DA8426F
:101AA0000ED1CD6822F0800242EA05124D6923F47E
:101AB000406343EA85038D6922F0400243EA8503CF
:101AC0004360846149688163026230BD002C01403B
:101AD00030B5026A22F480720262036A4268C46905
:101AE00023F4007324F073050C682C438D6843EADB
:101AF00005230C4DA8420ED1CD6823F4006343EAC0
:101B000005234D6922F4405242EA05128D6923F4FF
:101B1000806342EA05124260C4614968C16303629E
:101B200030BD0000002C014030B5026A22F4805222
:101B30000262046A4268C3690D6823F4E64343EA1B
:101B400005238D6824F4005444EA0534064DA84268
:101B500004D14D6922F4804242EA85124260C36199
:101B600049680164046230BD002C014070B5046A0C
:101B700024F0010404628469056A0F4EB04208D063
:101B8000B0F1804F05D00D4EB04202D00C4EB042A5
:101B900003D124F00304144301E044F001041A07C4
:101BA00024F0F00444EA126225F00A0301F00A016D
:101BB00019438261016270BD002C014000040040A5
:101BC0000008004030B5046A24F0100404628469FF
:101BD000056A24F4407444EA022222F470444FF669
:101BE000FF7202EA03322243A02425F0A00304EA94
:101BF000011119438261016230BD10B5406A0021B4
:101C0000C185C184FFF79FFB10BD0168CA6822F43B
:101C10009072CA6001684A6922F001024A6120217B
:101C200080F83A10704710B590F83A10222901D088
:101C3000022010BD8168B1F5805F11D001690029D3
:101C400001681FD0496801F07F03816A4A1C8262E3
:101C50000B70C18D491E0904090CC18518D02BE0F9
:101C60000269816A002A0268526805D0D2B20A80ED
:101C7000816A491C8162ECE7C2F308020A80816A2A
:101C8000891CF7E74A68816A4B1C83620A70E0E7A7
:101C90000168CA6822F02002CA600168CA6822F49A
:101CA0008072CA6001684A6922F001024A612021FB
:101CB00080F83A10FFF76CFC002010BD2DE9F041D0
:101CC000044600680169E26821F440511143016152
:101CD0002169A0680843616908432168CA6841F224
:101CE0000C639A430243CA6020684169A26921F4E7
:101CF0004071114341611E492068642532268842A3
:101D000002D1FEF701FE01E0FEF7EEFD00EBC0019F
:101D100001EB001160686FF018078000B1FBF0F272
:101D2000B2FBF5F2B1FBF0F37A4303EB8202B1FBB5
:101D3000F0F306EB0212B2FBF5F2B3FBF5F302F09F
:101D4000F00202EB0312B1FBF0F3B1FBF0F0B0FBD9
:101D5000F5F0784303EB800006EB0010B0FBF5F0E4
:101D6000216800F00F0010448860BDE8F081000099
:101D70000038014090F83910212901D00220704725
:101D80008168B1F5805F016A0BD04A1C026202686B
:101D900009785160C18C491E0904090CC1840ED018
:101DA00017E009880268C1F3080151600169002940
:101DB000016A02D0491C0162ECE7891CFBE701685B
:101DC000CA6822F08002CA600068C16841F0400120
:101DD000C160002070472DE9F041984617460E4635
:101DE0000446069D1DE0681C1BD02DB1FEF748FC83
:101DF000A0EB0800A84214D92068C16821F4D07172
:101E0000C1602068416921F001014161202084F80E
:101E1000390084F83A00002084F838000320BDE837
:101E2000F0812068006836EA000004D00020B84243
:101E3000D9D00020F3E70120F9E700000148FFF7BF
:101E400083BA0000B4000020FEE70907090E00284D
:101E500004DB00F1E02080F80014704700F00F0070
:101E600000F1E02080F8141D704702E008C8121F3E
:101E700008C1002AFAD170477047002001E001C173
:101E8000121F002AFBD17047044900220B685A62D6
:101E900009684A6A8242FCD370470000340000207F
:101EA000FEF7FCFBFFF728FD012216491648FFF755
:101EB00045FBFFF76DFC144814490C2201604FF4F8
:101EC0001651416000218160C160C0E90412816146
:101ED000C161FFF7C1FAFFF7CFFCFFF79FFC0A488B
:101EE00004214038FFF7FCF9074800214038FFF78C
:101EF000F7F9044CA41EE0690128FCD100F090F829
:101F0000F9E7000002000020B40000200038014082
:101F100010B5064C002240212046FEF7ABFB2046C0
:101F20000122BDE810408021FEF7A4BB000C014057
:101F300010B5064C002240212046FEF79BFB2046B0
:101F40000022BDE810408021FEF794BB000C014048
:101F500010B5064C012240212046FEF78BFB20469F
:101F60000022BDE810408021FEF784BB000C014038
:101F700010B5074C00224FF480712046FEF77AFB23
:101F800020460122BDE810405102FEF773BB00005D
:101F9000000C014010B5074C00224FF48071204620
:101FA000FEF768FB002261152046BDE81040FEF7F1
:101FB00061BB0000000C014010B5064C012211026B
:101FC0002046FEF757FB002261152046BDE8104071
:101FD000FEF750BB000C014010B5FFF799FFBDE8BC
:101FE0001040FFF7C5BF10B5FFF7B2FFBDE81040C6
:101FF000FFF7D0BF10B5FFF79BFFBDE81040FFF71C
:10200000DBBF10B5FFF794FFBDE81040FFF7C2BF7C
:1020100010B5FFF79DFFBDE81040FFF7CDBF0000F2
:1020200070B5FFF797FB334D686914285EDCFFF746
:10203000E8FF6420FEF71CFA2F4C4FF4AF702168C4
:10204000486321688863FFF7C7FF4FF496763046F0
:10205000FEF70EFAFFF7D5FFC820FEF709FA216850
:102060000020C86301206870FFF774FB6420FEF74E
:10207000FFF92068C6636420FEF7FAF92168700052
:10208000C8636420FEF7F4F921684FF46170C863F7
:102090006420FEF7EDF921684FF47A70C863FFF70A
:1020A00059FB6420FEF7E4F921684FF4FA70C86325
:1020B000296A14290BDA2869142808DAFFF78CFF3B
:1020C0003046FEF7D5F9FFF79CFF30460AE0286955
:1020D00040F2EE24814202DDFFF78CFF01E0FFF7C2
:1020E00082FF2046BDE87040FEF7C2B9BDE87040EF
:1020F000FFF78EBF000000207400002000000000E9
:1021000000000000010203040607080900000000A7
:102110000102030434210008000000203400000004
:102120006A1E00086821000834000020C404000072
:102130007A1E0008000000000000000000000000FF
:10214000000000000000000000000000000000008F
:10215000000000000000000001000000100000006E
:08216000000000000024F4005F
:04000005080000ED02
:00000001FF
